{
  "_format": "hh-sol-artifact-1",
  "contractName": "MetaLinks",
  "sourceName": "contracts/MetaLinks.sol",
  "abi": [
    {
      "inputs": [],
      "stateMutability": "nonpayable",
      "type": "constructor"
    },
    {
      "anonymous": false,
      "inputs": [
        {
          "indexed": true,
          "internalType": "uint256",
          "name": "avatarID",
          "type": "uint256"
        },
        {
          "indexed": false,
          "internalType": "address[]",
          "name": "newAddresses",
          "type": "address[]"
        }
      ],
      "name": "AvatarAddressesAdded",
      "type": "event"
    },
    {
      "anonymous": false,
      "inputs": [
        {
          "indexed": true,
          "internalType": "uint256",
          "name": "avatarID",
          "type": "uint256"
        },
        {
          "indexed": false,
          "internalType": "string",
          "name": "name",
          "type": "string"
        },
        {
          "indexed": false,
          "internalType": "string",
          "name": "aka",
          "type": "string"
        },
        {
          "indexed": false,
          "internalType": "string",
          "name": "bio",
          "type": "string"
        },
        {
          "indexed": false,
          "internalType": "string",
          "name": "avatar",
          "type": "string"
        },
        {
          "indexed": false,
          "internalType": "string",
          "name": "bgAvatar",
          "type": "string"
        }
      ],
      "name": "AvatarCreated",
      "type": "event"
    },
    {
      "anonymous": false,
      "inputs": [
        {
          "indexed": true,
          "internalType": "uint256",
          "name": "avatarID",
          "type": "uint256"
        },
        {
          "indexed": true,
          "internalType": "uint256",
          "name": "newMetaLinkID",
          "type": "uint256"
        },
        {
          "indexed": false,
          "internalType": "string",
          "name": "name",
          "type": "string"
        },
        {
          "indexed": false,
          "internalType": "string",
          "name": "aka",
          "type": "string"
        },
        {
          "indexed": false,
          "internalType": "string",
          "name": "bio",
          "type": "string"
        },
        {
          "indexed": false,
          "internalType": "string",
          "name": "universe",
          "type": "string"
        },
        {
          "indexed": false,
          "internalType": "string",
          "name": "link",
          "type": "string"
        },
        {
          "indexed": false,
          "internalType": "string",
          "name": "avatar",
          "type": "string"
        },
        {
          "indexed": false,
          "internalType": "string",
          "name": "bgAvatar",
          "type": "string"
        },
        {
          "indexed": false,
          "internalType": "bool",
          "name": "active",
          "type": "bool"
        }
      ],
      "name": "MetaLinkAdded",
      "type": "event"
    },
    {
      "anonymous": false,
      "inputs": [
        {
          "indexed": true,
          "internalType": "address",
          "name": "previousOwner",
          "type": "address"
        },
        {
          "indexed": true,
          "internalType": "address",
          "name": "newOwner",
          "type": "address"
        }
      ],
      "name": "OwnershipTransferred",
      "type": "event"
    },
    {
      "inputs": [
        {
          "internalType": "address[]",
          "name": "_addresses",
          "type": "address[]"
        }
      ],
      "name": "addAvatarAddress",
      "outputs": [
        {
          "internalType": "bool",
          "name": "",
          "type": "bool"
        }
      ],
      "stateMutability": "nonpayable",
      "type": "function"
    },
    {
      "inputs": [
        {
          "internalType": "string",
          "name": "_name",
          "type": "string"
        },
        {
          "internalType": "string",
          "name": "_aka",
          "type": "string"
        },
        {
          "internalType": "string",
          "name": "_bio",
          "type": "string"
        },
        {
          "internalType": "string",
          "name": "_universe",
          "type": "string"
        },
        {
          "internalType": "string",
          "name": "_avatar",
          "type": "string"
        },
        {
          "internalType": "string",
          "name": "_bg_avatar",
          "type": "string"
        },
        {
          "internalType": "string",
          "name": "_link",
          "type": "string"
        },
        {
          "internalType": "bool",
          "name": "_active",
          "type": "bool"
        }
      ],
      "name": "addAvatarMetalink",
      "outputs": [
        {
          "internalType": "bool",
          "name": "",
          "type": "bool"
        }
      ],
      "stateMutability": "nonpayable",
      "type": "function"
    },
    {
      "inputs": [
        {
          "internalType": "address",
          "name": "",
          "type": "address"
        }
      ],
      "name": "addressToAvatarID",
      "outputs": [
        {
          "internalType": "uint256",
          "name": "",
          "type": "uint256"
        }
      ],
      "stateMutability": "view",
      "type": "function"
    },
    {
      "inputs": [
        {
          "internalType": "string",
          "name": "_name",
          "type": "string"
        },
        {
          "internalType": "string",
          "name": "_aka",
          "type": "string"
        },
        {
          "internalType": "string",
          "name": "_bio",
          "type": "string"
        },
        {
          "internalType": "string",
          "name": "_avatar",
          "type": "string"
        },
        {
          "internalType": "string",
          "name": "_bg_avatar",
          "type": "string"
        }
      ],
      "name": "createAvatar",
      "outputs": [
        {
          "internalType": "uint256",
          "name": "",
          "type": "uint256"
        }
      ],
      "stateMutability": "nonpayable",
      "type": "function"
    },
    {
      "inputs": [
        {
          "internalType": "address",
          "name": "_address",
          "type": "address"
        }
      ],
      "name": "getAvatarByAddress",
      "outputs": [
        {
          "internalType": "string",
          "name": "",
          "type": "string"
        },
        {
          "internalType": "string",
          "name": "",
          "type": "string"
        },
        {
          "internalType": "string",
          "name": "",
          "type": "string"
        },
        {
          "internalType": "string",
          "name": "",
          "type": "string"
        },
        {
          "internalType": "string",
          "name": "",
          "type": "string"
        },
        {
          "internalType": "uint256[]",
          "name": "links",
          "type": "uint256[]"
        }
      ],
      "stateMutability": "view",
      "type": "function"
    },
    {
      "inputs": [
        {
          "internalType": "uint256",
          "name": "_id",
          "type": "uint256"
        }
      ],
      "name": "getAvatarById",
      "outputs": [
        {
          "internalType": "string",
          "name": "",
          "type": "string"
        },
        {
          "internalType": "string",
          "name": "",
          "type": "string"
        },
        {
          "internalType": "string",
          "name": "",
          "type": "string"
        },
        {
          "internalType": "string",
          "name": "",
          "type": "string"
        },
        {
          "internalType": "string",
          "name": "",
          "type": "string"
        },
        {
          "internalType": "uint256[]",
          "name": "links",
          "type": "uint256[]"
        }
      ],
      "stateMutability": "view",
      "type": "function"
    },
    {
      "inputs": [
        {
          "internalType": "address",
          "name": "_address",
          "type": "address"
        }
      ],
      "name": "getAvatarID",
      "outputs": [
        {
          "internalType": "uint256",
          "name": "",
          "type": "uint256"
        }
      ],
      "stateMutability": "view",
      "type": "function"
    },
    {
      "inputs": [
        {
          "internalType": "uint256",
          "name": "_id",
          "type": "uint256"
        }
      ],
      "name": "getAvatarMetaLinkIDs",
      "outputs": [
        {
          "internalType": "uint256[]",
          "name": "links",
          "type": "uint256[]"
        }
      ],
      "stateMutability": "view",
      "type": "function"
    },
    {
      "inputs": [
        {
          "internalType": "uint256",
          "name": "_id",
          "type": "uint256"
        }
      ],
      "name": "getMetaLink",
      "outputs": [
        {
          "internalType": "string",
          "name": "",
          "type": "string"
        },
        {
          "internalType": "string",
          "name": "",
          "type": "string"
        },
        {
          "internalType": "string",
          "name": "",
          "type": "string"
        },
        {
          "internalType": "string",
          "name": "",
          "type": "string"
        },
        {
          "internalType": "string",
          "name": "",
          "type": "string"
        },
        {
          "internalType": "string",
          "name": "",
          "type": "string"
        }
      ],
      "stateMutability": "view",
      "type": "function"
    },
    {
      "inputs": [],
      "name": "getMyAvatarID",
      "outputs": [
        {
          "internalType": "uint256",
          "name": "",
          "type": "uint256"
        }
      ],
      "stateMutability": "view",
      "type": "function"
    },
    {
      "inputs": [
        {
          "internalType": "uint256",
          "name": "",
          "type": "uint256"
        }
      ],
      "name": "idToAvatar",
      "outputs": [
        {
          "internalType": "string",
          "name": "name",
          "type": "string"
        },
        {
          "internalType": "string",
          "name": "aka",
          "type": "string"
        },
        {
          "internalType": "string",
          "name": "bio",
          "type": "string"
        },
        {
          "internalType": "string",
          "name": "avatar",
          "type": "string"
        },
        {
          "internalType": "string",
          "name": "bg_avatar",
          "type": "string"
        }
      ],
      "stateMutability": "view",
      "type": "function"
    },
    {
      "inputs": [
        {
          "internalType": "uint256",
          "name": "",
          "type": "uint256"
        }
      ],
      "name": "idToLink",
      "outputs": [
        {
          "internalType": "string",
          "name": "name",
          "type": "string"
        },
        {
          "internalType": "string",
          "name": "aka",
          "type": "string"
        },
        {
          "internalType": "string",
          "name": "universe",
          "type": "string"
        },
        {
          "internalType": "string",
          "name": "link",
          "type": "string"
        },
        {
          "internalType": "string",
          "name": "bio",
          "type": "string"
        },
        {
          "internalType": "string",
          "name": "avatar",
          "type": "string"
        },
        {
          "internalType": "string",
          "name": "bg_avatar",
          "type": "string"
        },
        {
          "internalType": "bool",
          "name": "active",
          "type": "bool"
        }
      ],
      "stateMutability": "view",
      "type": "function"
    },
    {
      "inputs": [
        {
          "internalType": "address",
          "name": "_address",
          "type": "address"
        }
      ],
      "name": "isAddressUsed",
      "outputs": [
        {
          "internalType": "bool",
          "name": "",
          "type": "bool"
        }
      ],
      "stateMutability": "view",
      "type": "function"
    },
    {
      "inputs": [],
      "name": "owner",
      "outputs": [
        {
          "internalType": "address",
          "name": "",
          "type": "address"
        }
      ],
      "stateMutability": "view",
      "type": "function"
    },
    {
      "inputs": [],
      "name": "renounceOwnership",
      "outputs": [],
      "stateMutability": "nonpayable",
      "type": "function"
    },
    {
      "inputs": [],
      "name": "totalAddresses",
      "outputs": [
        {
          "internalType": "uint256",
          "name": "",
          "type": "uint256"
        }
      ],
      "stateMutability": "view",
      "type": "function"
    },
    {
      "inputs": [],
      "name": "totalAvatars",
      "outputs": [
        {
          "internalType": "uint256",
          "name": "",
          "type": "uint256"
        }
      ],
      "stateMutability": "view",
      "type": "function"
    },
    {
      "inputs": [],
      "name": "totalMetaLinks",
      "outputs": [
        {
          "internalType": "uint256",
          "name": "",
          "type": "uint256"
        }
      ],
      "stateMutability": "view",
      "type": "function"
    },
    {
      "inputs": [
        {
          "internalType": "address",
          "name": "newOwner",
          "type": "address"
        }
      ],
      "name": "transferOwnership",
      "outputs": [],
      "stateMutability": "nonpayable",
      "type": "function"
    }
  ],
  "bytecode": "0x60806040523480156200001157600080fd5b5062000032620000266200003860201b60201c565b6200004060201b60201c565b62000104565b600033905090565b60008060009054906101000a900473ffffffffffffffffffffffffffffffffffffffff169050816000806101000a81548173ffffffffffffffffffffffffffffffffffffffff021916908373ffffffffffffffffffffffffffffffffffffffff1602179055508173ffffffffffffffffffffffffffffffffffffffff168173ffffffffffffffffffffffffffffffffffffffff167f8be0079c531659141344cd1fd0a4f28419497f9722a3daafe3b4186f6b6457e060405160405180910390a35050565b6137d180620001146000396000f3fe608060405234801561001057600080fd5b50600436106101215760003560e01c80637c834e30116100ad578063cfad527711610071578063cfad52771461036e578063f2fde38b1461038c578063fb241d01146103a8578063fb65dd3b146103d8578063fc94b4651461040c57610121565b80637c834e30146102b457806386e7e492146102e45780638da5cb5b14610314578063b48375e414610332578063baea526f1461035057610121565b8063569fdae7116100f4578063569fdae7146101f55780635a4f0b2f1461022557806362248254146102555780636ac156db1461028c578063715018a6146102aa57610121565b8063013808aa14610126578063106f4ad814610156578063215cc0311461018b5780634347fec8146101c0575b600080fd5b610140600480360381019061013b919061292d565b61043c565b60405161014d9190612a4d565b60405180910390f35b610170600480360381019061016b9190612a94565b6106d2565b60405161018296959493929190612b49565b60405180910390f35b6101a560048036038101906101a09190612c32565b610b9c565b6040516101b796959493929190612d1d565b60405180910390f35b6101da60048036038101906101d59190612a94565b610fc3565b6040516101ec96959493929190612d1d565b60405180910390f35b61020f600480360381019061020a9190612c32565b6113a5565b60405161021c9190612dc3565b60405180910390f35b61023f600480360381019061023a9190612c32565b6113f0565b60405161024c9190612a4d565b60405180910390f35b61026f600480360381019061026a9190612a94565b611439565b604051610283989796959493929190612dde565b60405180910390f35b610294611846565b6040516102a19190612a4d565b60405180910390f35b6102b261184c565b005b6102ce60048036038101906102c99190612eb9565b611860565b6040516102db9190612dc3565b60405180910390f35b6102fe60048036038101906102f991906130fb565b611b8a565b60405161030b9190612dc3565b60405180910390f35b61031c611e40565b6040516103299190613153565b60405180910390f35b61033a611e69565b6040516103479190612a4d565b60405180910390f35b610358611eb0565b6040516103659190612a4d565b60405180910390f35b610376611eb6565b6040516103839190612a4d565b60405180910390f35b6103a660048036038101906103a19190612c32565b611ebc565b005b6103c260048036038101906103bd9190612c32565b611f40565b6040516103cf9190612a4d565b60405180910390f35b6103f260048036038101906103ed9190612a94565b611f58565b60405161040395949392919061316e565b60405180910390f35b61042660048036038101906104219190612a94565b612236565b60405161043391906131e4565b60405180910390f35b600080600460003373ffffffffffffffffffffffffffffffffffffffff1673ffffffffffffffffffffffffffffffffffffffff16815260200190815260200160002054146104bf576040517f08c379a00000000000000000000000000000000000000000000000000000000081526004016104b690613252565b60405180910390fd5b6000600180546104cf91906132a1565b905080600460003373ffffffffffffffffffffffffffffffffffffffff1673ffffffffffffffffffffffffffffffffffffffff1681526020019081526020016000208190555060006040518060c00160405280898152602001888152602001878152602001868152602001858152602001600067ffffffffffffffff81111561055b5761055a612802565b5b6040519080825280602002602001820160405280156105895781602001602082028036833780820191505090505b508152509050806005600084815260200190815260200160002060008201518160000190805190602001906105bf9291906126e3565b5060208201518160010190805190602001906105dc9291906126e3565b5060408201518160020190805190602001906105f99291906126e3565b5060608201518160030190805190602001906106169291906126e3565b5060808201518160040190805190602001906106339291906126e3565b5060a0820151816005019080519060200190610650929190612769565b5090505060016000815480929190610667906132f7565b91905055506003600081548092919061067f906132f7565b9190505550817f33c79442820bff70e679fb367a83f1207627b18198401ecaf8700a48ca9b9c6289898989896040516106bc95949392919061316e565b60405180910390a2819250505095945050505050565b6060806060806060806000871180156106ed57506002548711155b61072c576040517f08c379a00000000000000000000000000000000000000000000000000000000081526004016107239061338c565b60405180910390fd5b6000600660008981526020019081526020016000206040518061010001604052908160008201805461075d906133db565b80601f0160208091040260200160405190810160405280929190818152602001828054610789906133db565b80156107d65780601f106107ab576101008083540402835291602001916107d6565b820191906000526020600020905b8154815290600101906020018083116107b957829003601f168201915b505050505081526020016001820180546107ef906133db565b80601f016020809104026020016040519081016040528092919081815260200182805461081b906133db565b80156108685780601f1061083d57610100808354040283529160200191610868565b820191906000526020600020905b81548152906001019060200180831161084b57829003601f168201915b50505050508152602001600282018054610881906133db565b80601f01602080910402602001604051908101604052809291908181526020018280546108ad906133db565b80156108fa5780601f106108cf576101008083540402835291602001916108fa565b820191906000526020600020905b8154815290600101906020018083116108dd57829003601f168201915b50505050508152602001600382018054610913906133db565b80601f016020809104026020016040519081016040528092919081815260200182805461093f906133db565b801561098c5780601f106109615761010080835404028352916020019161098c565b820191906000526020600020905b81548152906001019060200180831161096f57829003601f168201915b505050505081526020016004820180546109a5906133db565b80601f01602080910402602001604051908101604052809291908181526020018280546109d1906133db565b8015610a1e5780601f106109f357610100808354040283529160200191610a1e565b820191906000526020600020905b815481529060010190602001808311610a0157829003601f168201915b50505050508152602001600582018054610a37906133db565b80601f0160208091040260200160405190810160405280929190818152602001828054610a63906133db565b8015610ab05780601f10610a8557610100808354040283529160200191610ab0565b820191906000526020600020905b815481529060010190602001808311610a9357829003601f168201915b50505050508152602001600682018054610ac9906133db565b80601f0160208091040260200160405190810160405280929190818152602001828054610af5906133db565b8015610b425780601f10610b1757610100808354040283529160200191610b42565b820191906000526020600020905b815481529060010190602001808311610b2557829003601f168201915b505050505081526020016007820160009054906101000a900460ff16151515158152505090508060000151816020015182608001518360a001518460c0015185606001519650965096509650965096505091939550919395565b6060806060806060806000600460008973ffffffffffffffffffffffffffffffffffffffff1673ffffffffffffffffffffffffffffffffffffffff168152602001908152602001600020549050600081118015610bfb57506001548111155b610c3a576040517f08c379a0000000000000000000000000000000000000000000000000000000008152600401610c3190613459565b60405180910390fd5b6000600560008381526020019081526020016000206040518060c0016040529081600082018054610c6a906133db565b80601f0160208091040260200160405190810160405280929190818152602001828054610c96906133db565b8015610ce35780601f10610cb857610100808354040283529160200191610ce3565b820191906000526020600020905b815481529060010190602001808311610cc657829003601f168201915b50505050508152602001600182018054610cfc906133db565b80601f0160208091040260200160405190810160405280929190818152602001828054610d28906133db565b8015610d755780601f10610d4a57610100808354040283529160200191610d75565b820191906000526020600020905b815481529060010190602001808311610d5857829003601f168201915b50505050508152602001600282018054610d8e906133db565b80601f0160208091040260200160405190810160405280929190818152602001828054610dba906133db565b8015610e075780601f10610ddc57610100808354040283529160200191610e07565b820191906000526020600020905b815481529060010190602001808311610dea57829003601f168201915b50505050508152602001600382018054610e20906133db565b80601f0160208091040260200160405190810160405280929190818152602001828054610e4c906133db565b8015610e995780601f10610e6e57610100808354040283529160200191610e99565b820191906000526020600020905b815481529060010190602001808311610e7c57829003601f168201915b50505050508152602001600482018054610eb2906133db565b80601f0160208091040260200160405190810160405280929190818152602001828054610ede906133db565b8015610f2b5780601f10610f0057610100808354040283529160200191610f2b565b820191906000526020600020905b815481529060010190602001808311610f0e57829003601f168201915b5050505050815260200160058201805480602002602001604051908101604052809291908181526020018280548015610f8357602002820191906000526020600020905b815481526020019060010190808311610f6f575b5050505050815250509050806000015181602001518260400151836060015184608001518560a00151975097509750975097509750505091939550919395565b606080606080606080600087118015610fde57506001548711155b61101d576040517f08c379a000000000000000000000000000000000000000000000000000000000815260040161101490613459565b60405180910390fd5b6000600560008981526020019081526020016000206040518060c001604052908160008201805461104d906133db565b80601f0160208091040260200160405190810160405280929190818152602001828054611079906133db565b80156110c65780601f1061109b576101008083540402835291602001916110c6565b820191906000526020600020905b8154815290600101906020018083116110a957829003601f168201915b505050505081526020016001820180546110df906133db565b80601f016020809104026020016040519081016040528092919081815260200182805461110b906133db565b80156111585780601f1061112d57610100808354040283529160200191611158565b820191906000526020600020905b81548152906001019060200180831161113b57829003601f168201915b50505050508152602001600282018054611171906133db565b80601f016020809104026020016040519081016040528092919081815260200182805461119d906133db565b80156111ea5780601f106111bf576101008083540402835291602001916111ea565b820191906000526020600020905b8154815290600101906020018083116111cd57829003601f168201915b50505050508152602001600382018054611203906133db565b80601f016020809104026020016040519081016040528092919081815260200182805461122f906133db565b801561127c5780601f106112515761010080835404028352916020019161127c565b820191906000526020600020905b81548152906001019060200180831161125f57829003601f168201915b50505050508152602001600482018054611295906133db565b80601f01602080910402602001604051908101604052809291908181526020018280546112c1906133db565b801561130e5780601f106112e35761010080835404028352916020019161130e565b820191906000526020600020905b8154815290600101906020018083116112f157829003601f168201915b505050505081526020016005820180548060200260200160405190810160405280929190818152602001828054801561136657602002820191906000526020600020905b815481526020019060010190808311611352575b5050505050815250509050806000015181602001518260400151836060015184608001518560a001519650965096509650965096505091939550919395565b600080600460008473ffffffffffffffffffffffffffffffffffffffff1673ffffffffffffffffffffffffffffffffffffffff16815260200190815260200160002054119050919050565b6000600460008373ffffffffffffffffffffffffffffffffffffffff1673ffffffffffffffffffffffffffffffffffffffff168152602001908152602001600020549050919050565b600660205280600052604060002060009150905080600001805461145c906133db565b80601f0160208091040260200160405190810160405280929190818152602001828054611488906133db565b80156114d55780601f106114aa576101008083540402835291602001916114d5565b820191906000526020600020905b8154815290600101906020018083116114b857829003601f168201915b5050505050908060010180546114ea906133db565b80601f0160208091040260200160405190810160405280929190818152602001828054611516906133db565b80156115635780601f1061153857610100808354040283529160200191611563565b820191906000526020600020905b81548152906001019060200180831161154657829003601f168201915b505050505090806002018054611578906133db565b80601f01602080910402602001604051908101604052809291908181526020018280546115a4906133db565b80156115f15780601f106115c6576101008083540402835291602001916115f1565b820191906000526020600020905b8154815290600101906020018083116115d457829003601f168201915b505050505090806003018054611606906133db565b80601f0160208091040260200160405190810160405280929190818152602001828054611632906133db565b801561167f5780601f106116545761010080835404028352916020019161167f565b820191906000526020600020905b81548152906001019060200180831161166257829003601f168201915b505050505090806004018054611694906133db565b80601f01602080910402602001604051908101604052809291908181526020018280546116c0906133db565b801561170d5780601f106116e25761010080835404028352916020019161170d565b820191906000526020600020905b8154815290600101906020018083116116f057829003601f168201915b505050505090806005018054611722906133db565b80601f016020809104026020016040519081016040528092919081815260200182805461174e906133db565b801561179b5780601f106117705761010080835404028352916020019161179b565b820191906000526020600020905b81548152906001019060200180831161177e57829003601f168201915b5050505050908060060180546117b0906133db565b80601f01602080910402602001604051908101604052809291908181526020018280546117dc906133db565b80156118295780601f106117fe57610100808354040283529160200191611829565b820191906000526020600020905b81548152906001019060200180831161180c57829003601f168201915b5050505050908060070160009054906101000a900460ff16905088565b60015481565b611854612599565b61185e6000612617565b565b600080600460003373ffffffffffffffffffffffffffffffffffffffff1673ffffffffffffffffffffffffffffffffffffffff168152602001908152602001600020541180156118f15750600154600460003373ffffffffffffffffffffffffffffffffffffffff1673ffffffffffffffffffffffffffffffffffffffff1681526020019081526020016000205411155b611930576040517f08c379a0000000000000000000000000000000000000000000000000000000008152600401611927906134c5565b60405180910390fd5b6000600460003373ffffffffffffffffffffffffffffffffffffffff1673ffffffffffffffffffffffffffffffffffffffff16815260200190815260200160002054905060006005600083815260200190815260200160002090506000600160025461199c91906132a1565b905060006040518061010001604052808e81526020018d81526020018b81526020018881526020018c81526020018a8152602001898152602001871515815250905080600660008481526020019081526020016000206000820151816000019080519060200190611a0e9291906126e3565b506020820151816001019080519060200190611a2b9291906126e3565b506040820151816002019080519060200190611a489291906126e3565b506060820151816003019080519060200190611a659291906126e3565b506080820151816004019080519060200190611a829291906126e3565b5060a0820151816005019080519060200190611a9f9291906126e3565b5060c0820151816006019080519060200190611abc9291906126e3565b5060e08201518160070160006101000a81548160ff0219169083151502179055509050508260050182908060018154018082558091505060019003906000526020600020016000909190919091505560026000815480929190611b1e906132f7565b919050555081847f01a01fbca88702fbfa390f3ae96229cf64dbfab947835c5446581c0da3c5bd5c8f8f8f8f8d8860a001518960c001518a60e00151604051611b6e989796959493929190612dde565b60405180910390a3600194505050505098975050505050505050565b600080600460003373ffffffffffffffffffffffffffffffffffffffff1673ffffffffffffffffffffffffffffffffffffffff16815260200190815260200160002054118015611c1b5750600154600460003373ffffffffffffffffffffffffffffffffffffffff1673ffffffffffffffffffffffffffffffffffffffff1681526020019081526020016000205411155b611c5a576040517f08c379a0000000000000000000000000000000000000000000000000000000008152600401611c51906134c5565b60405180910390fd5b6000600460003373ffffffffffffffffffffffffffffffffffffffff1673ffffffffffffffffffffffffffffffffffffffff168152602001908152602001600020549050600081118015611cb057506001548111155b611cef576040517f08c379a0000000000000000000000000000000000000000000000000000000008152600401611ce690613531565b60405180910390fd5b60005b83518163ffffffff161015611dfd5760008060046000878563ffffffff1681518110611d2157611d20613551565b5b602002602001015173ffffffffffffffffffffffffffffffffffffffff1673ffffffffffffffffffffffffffffffffffffffff1681526020019081526020016000205411905080611de9578260046000878563ffffffff1681518110611d8a57611d89613551565b5b602002602001015173ffffffffffffffffffffffffffffffffffffffff1673ffffffffffffffffffffffffffffffffffffffff1681526020019081526020016000208190555060036000815480929190611de3906132f7565b91905055505b508080611df590613590565b915050611cf2565b50807f8a0c6825467ff556effbebfe0914ed79ec1cf62663db6aa192c3a60227814ce584604051611e2e919061367b565b60405180910390a26001915050919050565b60008060009054906101000a900473ffffffffffffffffffffffffffffffffffffffff16905090565b6000600460003373ffffffffffffffffffffffffffffffffffffffff1673ffffffffffffffffffffffffffffffffffffffff16815260200190815260200160002054905090565b60025481565b60035481565b611ec4612599565b600073ffffffffffffffffffffffffffffffffffffffff168173ffffffffffffffffffffffffffffffffffffffff161415611f34576040517f08c379a0000000000000000000000000000000000000000000000000000000008152600401611f2b9061370f565b60405180910390fd5b611f3d81612617565b50565b60046020528060005260406000206000915090505481565b6005602052806000526040600020600091509050806000018054611f7b906133db565b80601f0160208091040260200160405190810160405280929190818152602001828054611fa7906133db565b8015611ff45780601f10611fc957610100808354040283529160200191611ff4565b820191906000526020600020905b815481529060010190602001808311611fd757829003601f168201915b505050505090806001018054612009906133db565b80601f0160208091040260200160405190810160405280929190818152602001828054612035906133db565b80156120825780601f1061205757610100808354040283529160200191612082565b820191906000526020600020905b81548152906001019060200180831161206557829003601f168201915b505050505090806002018054612097906133db565b80601f01602080910402602001604051908101604052809291908181526020018280546120c3906133db565b80156121105780601f106120e557610100808354040283529160200191612110565b820191906000526020600020905b8154815290600101906020018083116120f357829003601f168201915b505050505090806003018054612125906133db565b80601f0160208091040260200160405190810160405280929190818152602001828054612151906133db565b801561219e5780601f106121735761010080835404028352916020019161219e565b820191906000526020600020905b81548152906001019060200180831161218157829003601f168201915b5050505050908060040180546121b3906133db565b80601f01602080910402602001604051908101604052809291908181526020018280546121df906133db565b801561222c5780601f106122015761010080835404028352916020019161222c565b820191906000526020600020905b81548152906001019060200180831161220f57829003601f168201915b5050505050905085565b60606000600560008481526020019081526020016000206040518060c0016040529081600082018054612268906133db565b80601f0160208091040260200160405190810160405280929190818152602001828054612294906133db565b80156122e15780601f106122b6576101008083540402835291602001916122e1565b820191906000526020600020905b8154815290600101906020018083116122c457829003601f168201915b505050505081526020016001820180546122fa906133db565b80601f0160208091040260200160405190810160405280929190818152602001828054612326906133db565b80156123735780601f1061234857610100808354040283529160200191612373565b820191906000526020600020905b81548152906001019060200180831161235657829003601f168201915b5050505050815260200160028201805461238c906133db565b80601f01602080910402602001604051908101604052809291908181526020018280546123b8906133db565b80156124055780601f106123da57610100808354040283529160200191612405565b820191906000526020600020905b8154815290600101906020018083116123e857829003601f168201915b5050505050815260200160038201805461241e906133db565b80601f016020809104026020016040519081016040528092919081815260200182805461244a906133db565b80156124975780601f1061246c57610100808354040283529160200191612497565b820191906000526020600020905b81548152906001019060200180831161247a57829003601f168201915b505050505081526020016004820180546124b0906133db565b80601f01602080910402602001604051908101604052809291908181526020018280546124dc906133db565b80156125295780601f106124fe57610100808354040283529160200191612529565b820191906000526020600020905b81548152906001019060200180831161250c57829003601f168201915b505050505081526020016005820180548060200260200160405190810160405280929190818152602001828054801561258157602002820191906000526020600020905b81548152602001906001019080831161256d575b50505050508152505090508060a00151915050919050565b6125a16126db565b73ffffffffffffffffffffffffffffffffffffffff166125bf611e40565b73ffffffffffffffffffffffffffffffffffffffff1614612615576040517f08c379a000000000000000000000000000000000000000000000000000000000815260040161260c9061377b565b60405180910390fd5b565b60008060009054906101000a900473ffffffffffffffffffffffffffffffffffffffff169050816000806101000a81548173ffffffffffffffffffffffffffffffffffffffff021916908373ffffffffffffffffffffffffffffffffffffffff1602179055508173ffffffffffffffffffffffffffffffffffffffff168173ffffffffffffffffffffffffffffffffffffffff167f8be0079c531659141344cd1fd0a4f28419497f9722a3daafe3b4186f6b6457e060405160405180910390a35050565b600033905090565b8280546126ef906133db565b90600052602060002090601f0160209004810192826127115760008555612758565b82601f1061272a57805160ff1916838001178555612758565b82800160010185558215612758579182015b8281111561275757825182559160200191906001019061273c565b5b50905061276591906127b6565b5090565b8280548282559060005260206000209081019282156127a5579160200282015b828111156127a4578251825591602001919060010190612789565b5b5090506127b291906127b6565b5090565b5b808211156127cf5760008160009055506001016127b7565b5090565b6000604051905090565b600080fd5b600080fd5b600080fd5b600080fd5b6000601f19601f8301169050919050565b7f4e487b7100000000000000000000000000000000000000000000000000000000600052604160045260246000fd5b61283a826127f1565b810181811067ffffffffffffffff8211171561285957612858612802565b5b80604052505050565b600061286c6127d3565b90506128788282612831565b919050565b600067ffffffffffffffff82111561289857612897612802565b5b6128a1826127f1565b9050602081019050919050565b82818337600083830152505050565b60006128d06128cb8461287d565b612862565b9050828152602081018484840111156128ec576128eb6127ec565b5b6128f78482856128ae565b509392505050565b600082601f830112612914576129136127e7565b5b81356129248482602086016128bd565b91505092915050565b600080600080600060a08688031215612949576129486127dd565b5b600086013567ffffffffffffffff811115612967576129666127e2565b5b612973888289016128ff565b955050602086013567ffffffffffffffff811115612994576129936127e2565b5b6129a0888289016128ff565b945050604086013567ffffffffffffffff8111156129c1576129c06127e2565b5b6129cd888289016128ff565b935050606086013567ffffffffffffffff8111156129ee576129ed6127e2565b5b6129fa888289016128ff565b925050608086013567ffffffffffffffff811115612a1b57612a1a6127e2565b5b612a27888289016128ff565b9150509295509295909350565b6000819050919050565b612a4781612a34565b82525050565b6000602082019050612a626000830184612a3e565b92915050565b612a7181612a34565b8114612a7c57600080fd5b50565b600081359050612a8e81612a68565b92915050565b600060208284031215612aaa57612aa96127dd565b5b6000612ab884828501612a7f565b91505092915050565b600081519050919050565b600082825260208201905092915050565b60005b83811015612afb578082015181840152602081019050612ae0565b83811115612b0a576000848401525b50505050565b6000612b1b82612ac1565b612b258185612acc565b9350612b35818560208601612add565b612b3e816127f1565b840191505092915050565b600060c0820190508181036000830152612b638189612b10565b90508181036020830152612b778188612b10565b90508181036040830152612b8b8187612b10565b90508181036060830152612b9f8186612b10565b90508181036080830152612bb38185612b10565b905081810360a0830152612bc78184612b10565b9050979650505050505050565b600073ffffffffffffffffffffffffffffffffffffffff82169050919050565b6000612bff82612bd4565b9050919050565b612c0f81612bf4565b8114612c1a57600080fd5b50565b600081359050612c2c81612c06565b92915050565b600060208284031215612c4857612c476127dd565b5b6000612c5684828501612c1d565b91505092915050565b600081519050919050565b600082825260208201905092915050565b6000819050602082019050919050565b612c9481612a34565b82525050565b6000612ca68383612c8b565b60208301905092915050565b6000602082019050919050565b6000612cca82612c5f565b612cd48185612c6a565b9350612cdf83612c7b565b8060005b83811015612d10578151612cf78882612c9a565b9750612d0283612cb2565b925050600181019050612ce3565b5085935050505092915050565b600060c0820190508181036000830152612d378189612b10565b90508181036020830152612d4b8188612b10565b90508181036040830152612d5f8187612b10565b90508181036060830152612d738186612b10565b90508181036080830152612d878185612b10565b905081810360a0830152612d9b8184612cbf565b9050979650505050505050565b60008115159050919050565b612dbd81612da8565b82525050565b6000602082019050612dd86000830184612db4565b92915050565b6000610100820190508181036000830152612df9818b612b10565b90508181036020830152612e0d818a612b10565b90508181036040830152612e218189612b10565b90508181036060830152612e358188612b10565b90508181036080830152612e498187612b10565b905081810360a0830152612e5d8186612b10565b905081810360c0830152612e718185612b10565b9050612e8060e0830184612db4565b9998505050505050505050565b612e9681612da8565b8114612ea157600080fd5b50565b600081359050612eb381612e8d565b92915050565b600080600080600080600080610100898b031215612eda57612ed96127dd565b5b600089013567ffffffffffffffff811115612ef857612ef76127e2565b5b612f048b828c016128ff565b985050602089013567ffffffffffffffff811115612f2557612f246127e2565b5b612f318b828c016128ff565b975050604089013567ffffffffffffffff811115612f5257612f516127e2565b5b612f5e8b828c016128ff565b965050606089013567ffffffffffffffff811115612f7f57612f7e6127e2565b5b612f8b8b828c016128ff565b955050608089013567ffffffffffffffff811115612fac57612fab6127e2565b5b612fb88b828c016128ff565b94505060a089013567ffffffffffffffff811115612fd957612fd86127e2565b5b612fe58b828c016128ff565b93505060c089013567ffffffffffffffff811115613006576130056127e2565b5b6130128b828c016128ff565b92505060e06130238b828c01612ea4565b9150509295985092959890939650565b600067ffffffffffffffff82111561304e5761304d612802565b5b602082029050602081019050919050565b600080fd5b600061307761307284613033565b612862565b9050808382526020820190506020840283018581111561309a5761309961305f565b5b835b818110156130c357806130af8882612c1d565b84526020840193505060208101905061309c565b5050509392505050565b600082601f8301126130e2576130e16127e7565b5b81356130f2848260208601613064565b91505092915050565b600060208284031215613111576131106127dd565b5b600082013567ffffffffffffffff81111561312f5761312e6127e2565b5b61313b848285016130cd565b91505092915050565b61314d81612bf4565b82525050565b60006020820190506131686000830184613144565b92915050565b600060a08201905081810360008301526131888188612b10565b9050818103602083015261319c8187612b10565b905081810360408301526131b08186612b10565b905081810360608301526131c48185612b10565b905081810360808301526131d88184612b10565b90509695505050505050565b600060208201905081810360008301526131fe8184612cbf565b905092915050565b7f596f752061726520616c72656164792061206d656d6265720000000000000000600082015250565b600061323c601883612acc565b915061324782613206565b602082019050919050565b6000602082019050818103600083015261326b8161322f565b9050919050565b7f4e487b7100000000000000000000000000000000000000000000000000000000600052601160045260246000fd5b60006132ac82612a34565b91506132b783612a34565b9250827fffffffffffffffffffffffffffffffffffffffffffffffffffffffffffffffff038211156132ec576132eb613272565b5b828201905092915050565b600061330282612a34565b91507fffffffffffffffffffffffffffffffffffffffffffffffffffffffffffffffff82141561333557613334613272565b5b600182019050919050565b7f4d6574614c696e6b20646f6573206e6f74206578697374000000000000000000600082015250565b6000613376601783612acc565b915061338182613340565b602082019050919050565b600060208201905081810360008301526133a581613369565b9050919050565b7f4e487b7100000000000000000000000000000000000000000000000000000000600052602260045260246000fd5b600060028204905060018216806133f357607f821691505b60208210811415613407576134066133ac565b5b50919050565b7f41766174617220646f6573206e6f742065786973740000000000000000000000600082015250565b6000613443601583612acc565b915061344e8261340d565b602082019050919050565b6000602082019050818103600083015261347281613436565b9050919050565b7f596f75206861766520746f2062652061206d656d626572000000000000000000600082015250565b60006134af601783612acc565b91506134ba82613479565b602082019050919050565b600060208201905081810360008301526134de816134a2565b9050919050565b7f4e6f7420612076616c6964204176617461722049440000000000000000000000600082015250565b600061351b601583612acc565b9150613526826134e5565b602082019050919050565b6000602082019050818103600083015261354a8161350e565b9050919050565b7f4e487b7100000000000000000000000000000000000000000000000000000000600052603260045260246000fd5b600063ffffffff82169050919050565b600061359b82613580565b915063ffffffff8214156135b2576135b1613272565b5b600182019050919050565b600081519050919050565b600082825260208201905092915050565b6000819050602082019050919050565b6135f281612bf4565b82525050565b600061360483836135e9565b60208301905092915050565b6000602082019050919050565b6000613628826135bd565b61363281856135c8565b935061363d836135d9565b8060005b8381101561366e57815161365588826135f8565b975061366083613610565b925050600181019050613641565b5085935050505092915050565b60006020820190508181036000830152613695818461361d565b905092915050565b7f4f776e61626c653a206e6577206f776e657220697320746865207a65726f206160008201527f6464726573730000000000000000000000000000000000000000000000000000602082015250565b60006136f9602683612acc565b91506137048261369d565b604082019050919050565b60006020820190508181036000830152613728816136ec565b9050919050565b7f4f776e61626c653a2063616c6c6572206973206e6f7420746865206f776e6572600082015250565b6000613765602083612acc565b91506137708261372f565b602082019050919050565b6000602082019050818103600083015261379481613758565b905091905056fea2646970667358221220e1ffc32b53206e6ecb9b42aa1a9aeaa45523c9ad92593ab520f6774c91bd78f464736f6c63430008090033",
  "linkReferences": {},
  "deployedLinkReferences": {}
}